{
  "abi": [
    {
      "inputs": [
        {
          "internalType": "address",
          "name": "poolManagerAddress",
          "type": "address"
        },
        {
          "components": [
            {
              "internalType": "Currency",
              "name": "currency0",
              "type": "address"
            },
            {
              "internalType": "Currency",
              "name": "currency1",
              "type": "address"
            },
            {
              "internalType": "uint24",
              "name": "fee",
              "type": "uint24"
            },
            {
              "internalType": "int24",
              "name": "tickSpacing",
              "type": "int24"
            },
            {
              "internalType": "contract IHooks",
              "name": "hooks",
              "type": "address"
            }
          ],
          "internalType": "struct PoolKey",
          "name": "key",
          "type": "tuple"
        }
      ],
      "stateMutability": "nonpayable",
      "type": "constructor"
    },
    {
      "inputs": [],
      "name": "InvalidActionType",
      "type": "error"
    },
    {
      "inputs": [],
      "name": "SQRT_RATIO_1_1",
      "outputs": [
        {
          "internalType": "uint160",
          "name": "",
          "type": "uint160"
        }
      ],
      "stateMutability": "view",
      "type": "function"
    },
    {
      "inputs": [],
      "name": "ZERO_BYTES",
      "outputs": [
        {
          "internalType": "bytes",
          "name": "",
          "type": "bytes"
        }
      ],
      "stateMutability": "view",
      "type": "function"
    },
    {
      "inputs": [
        {
          "internalType": "bytes",
          "name": "rawData",
          "type": "bytes"
        }
      ],
      "name": "lockAcquired",
      "outputs": [
        {
          "internalType": "bytes",
          "name": "",
          "type": "bytes"
        }
      ],
      "stateMutability": "nonpayable",
      "type": "function"
    },
    {
      "inputs": [],
      "name": "poolKey",
      "outputs": [
        {
          "internalType": "Currency",
          "name": "currency0",
          "type": "address"
        },
        {
          "internalType": "Currency",
          "name": "currency1",
          "type": "address"
        },
        {
          "internalType": "uint24",
          "name": "fee",
          "type": "uint24"
        },
        {
          "internalType": "int24",
          "name": "tickSpacing",
          "type": "int24"
        },
        {
          "internalType": "contract IHooks",
          "name": "hooks",
          "type": "address"
        }
      ],
      "stateMutability": "view",
      "type": "function"
    },
    {
      "inputs": [],
      "name": "poolManager",
      "outputs": [
        {
          "internalType": "contract IPoolManager",
          "name": "",
          "type": "address"
        }
      ],
      "stateMutability": "view",
      "type": "function"
    },
    {
      "inputs": [
        {
          "internalType": "int24",
          "name": "tickLower",
          "type": "int24"
        },
        {
          "internalType": "int24",
          "name": "tickUpper",
          "type": "int24"
        },
        {
          "internalType": "int256",
          "name": "liquidityDelta",
          "type": "int256"
        }
      ],
      "name": "runMP",
      "outputs": [
        {
          "internalType": "bytes",
          "name": "result",
          "type": "bytes"
        }
      ],
      "stateMutability": "nonpayable",
      "type": "function"
    },
    {
      "inputs": [
        {
          "internalType": "bool",
          "name": "zeroForOne",
          "type": "bool"
        },
        {
          "internalType": "int256",
          "name": "amountSpecified",
          "type": "int256"
        },
        {
          "internalType": "uint160",
          "name": "sqrtPriceLimitX96",
          "type": "uint160"
        }
      ],
      "name": "runSwap",
      "outputs": [
        {
          "internalType": "bytes",
          "name": "result",
          "type": "bytes"
        }
      ],
      "stateMutability": "nonpayable",
      "type": "function"
    }
  ],
  "bytecode": {
    "object": "0x60806040523480156200001157600080fd5b506040516200135c3803806200135c83398101604081905262000034916200011e565b600080546001600160a01b03199081166001600160a01b03948516179091558151600180548316918516919091179055602082015160028054604085015160608601519387166001600160b81b031990921691909117600160a01b62ffffff928316021762ffffff60b81b1916600160b81b9190931602919091179055608090910151600380549092169216919091179055620001f1565b6001600160a01b0381168114620000e257600080fd5b50565b8051620000f281620000cc565b919050565b805162ffffff81168114620000f257600080fd5b8051600281900b8114620000f257600080fd5b60008082840360c08112156200013357600080fd5b83516200014081620000cc565b925060a0601f19820112156200015557600080fd5b5060405160a081016001600160401b03811182821017156200018757634e487b7160e01b600052604160045260246000fd5b6040526200019860208501620000e5565b8152620001a860408501620000e5565b6020820152620001bb60608501620000f7565b6040820152620001ce608085016200010b565b6060820152620001e160a08501620000e5565b6080820152809150509250929050565b61115b80620002016000396000f3fe608060405234801561001057600080fd5b506004361061007d5760003560e01c806377267b1e1161005b57806377267b1e14610135578063ab6291fe14610158578063c11808d91461016b578063dc4c90d31461018057600080fd5b8063182148ef146100825780631ff8331c146101025780634d3a02ab14610122575b600080fd5b600154600280546003546100bd936001600160a01b03908116938382169362ffffff600160a01b82041693600160b81b90910490910b911685565b604080516001600160a01b039687168152948616602086015262ffffff9093169284019290925260020b606083015291909116608082015260a0015b60405180910390f35b610115610110366004610a03565b610193565b6040516100f99190610a95565b610115610130366004610abe565b6102cd565b610140600160601b81565b6040516001600160a01b0390911681526020016100f9565b610115610166366004610aff565b610379565b61011560408051600081526020810190915281565b600054610140906001600160a01b031681565b6040805160608082018352851515825260208083018690526001600160a01b0385811684860152600054855160808082018852338252875160a081018952600180548616825260028054808816848a0152600160a01b810462ffffff16848d0152600160b81b9004900b828901526003548616928201929092528286015281880152955193959116926381548319928287019161023291879101610b87565b60408051601f198184030181529181529152516102529190602001610bf6565b6040516020818303038152906040526040518263ffffffff1660e01b815260040161027d9190610a95565b6000604051808303816000875af115801561029c573d6000803e3d6000fd5b505050506040513d6000823e601f3d908101601f191682016040526102c49190810190610d46565b95945050505050565b6040805160608181018352600286810b835285810b60208085019190915283850186905260008054865160808082018952338252885160a081018a526001546001600160a01b03908116825287548082168389015262ffffff600160a01b820416838d0152600160b81b900490970b8189015260035487169181019190915293810193909352939592909316926381548319928201908152602001846040516020016102329190610db9565b6000546060906001600160a01b0316331461039357600080fd5b60006103a183850185610e49565b9050600080826040015160018111156103bc576103bc610b71565b0361048157600054602080840151606085015180516001600160a01b03909416936361ae449a936103f39291820181019101610f65565b8551604080516001600160a01b039092166020830152016040516020818303038152906040526040518463ffffffff1660e01b815260040161043793929190610fb2565b6020604051808303816000875af1158015610456573d6000803e3d6000fd5b505050506040513d601f19601f8201168201806040525081019061047a9190611001565b905061052d565b60018260400151600181111561049957610499610b71565b0361051457600054602080840151606085015180516001600160a01b039094169363f3cd914c936104d0929182018101910161101a565b8551604080516001600160a01b039092166020830152016040516020818303038152906040526040518463ffffffff1660e01b815260040161043793929190611065565b604051632237483560e21b815260040160405180910390fd5b60006105398260801c90565b600f0b13156106f5576020820151516001600160a01b03166105f3576000546001600160a01b0316636a256b296105708360801c90565b6020850151516040516001600160e01b031960e085901b1681526001600160a01b0390911660048201526001600160801b03919091169060240160206040518083038185885af11580156105c8573d6000803e3d6000fd5b50505050506040513d601f19601f820116820180604052508101906105ed9190611001565b506106f5565b60208201515182516000546001600160a01b03928316926323b872dd92911661061c8560801c90565b6040518463ffffffff1660e01b815260040161063a9392919061109f565b6020604051808303816000875af1158015610659573d6000803e3d6000fd5b505050506040513d601f19601f8201168201806040525081019061067d91906110cb565b50600054602083015151604051636a256b2960e01b81526001600160a01b039182166004820152911690636a256b29906024016020604051808303816000875af11580156106cf573d6000803e3d6000fd5b505050506040513d601f19601f820116820180604052508101906106f39190611001565b505b600081600f0b131561089a5760208083015101516001600160a01b031661079e576000546020808401510151604051636a256b2960e01b81526001600160a01b039182166004820152911690636a256b29906001600160801b0384169060240160206040518083038185885af1158015610773573d6000803e3d6000fd5b50505050506040513d601f19601f820116820180604052508101906107989190611001565b5061089a565b602082810151015182516000546040516323b872dd60e01b81526001600160a01b03938416936323b872dd936107dd939092911690869060040161109f565b6020604051808303816000875af11580156107fc573d6000803e3d6000fd5b505050506040513d601f19601f8201168201806040525081019061082091906110cb565b506000546020838101510151604051636a256b2960e01b81526001600160a01b039182166004820152911690636a256b29906024016020604051808303816000875af1158015610874573d6000803e3d6000fd5b505050506040513d601f19601f820116820180604052508101906108989190611001565b505b60006108a68260801c90565b600f0b12156109315760005460208301515183516001600160a01b0390921691630b0d9c0991906108d78560801c90565b6108e0906110e8565b6040518463ffffffff1660e01b81526004016108fe9392919061109f565b600060405180830381600087803b15801561091857600080fd5b505af115801561092c573d6000803e3d6000fd5b505050505b600081600f0b12156109b757600054602083810151015183516001600160a01b0390921691630b0d9c099190610966856110e8565b6040518463ffffffff1660e01b81526004016109849392919061109f565b600060405180830381600087803b15801561099e57600080fd5b505af11580156109b2573d6000803e3d6000fd5b505050505b604080516020810183905201604051602081830303815290604052925050505b92915050565b80151581146109eb57600080fd5b50565b6001600160a01b03811681146109eb57600080fd5b600080600060608486031215610a1857600080fd5b8335610a23816109dd565b9250602084013591506040840135610a3a816109ee565b809150509250925092565b60005b83811015610a60578181015183820152602001610a48565b50506000910152565b60008151808452610a81816020860160208601610a45565b601f01601f19169290920160200192915050565b602081526000610aa86020830184610a69565b9392505050565b8060020b81146109eb57600080fd5b600080600060608486031215610ad357600080fd5b8335610ade81610aaf565b92506020840135610aee81610aaf565b929592945050506040919091013590565b60008060208385031215610b1257600080fd5b823567ffffffffffffffff80821115610b2a57600080fd5b818501915085601f830112610b3e57600080fd5b813581811115610b4d57600080fd5b866020828501011115610b5f57600080fd5b60209290920196919550909350505050565b634e487b7160e01b600052602160045260246000fd5b815115158152602080830151908201526040808301516001600160a01b031690820152606081016109d7565b80516001600160a01b03908116835260208083015182169084015260408083015162ffffff169084015260608083015160020b9084015260809182015116910152565b602080825282516001600160a01b031682820152820151600090610c1d6040840182610bb3565b50604083015160028110610c4157634e487b7160e01b600052602160045260246000fd5b60e0830152606083015161010080840152610c60610120840182610a69565b949350505050565b634e487b7160e01b600052604160045260246000fd5b6040516080810167ffffffffffffffff81118282101715610ca157610ca1610c68565b60405290565b60405160a0810167ffffffffffffffff81118282101715610ca157610ca1610c68565b6040516060810167ffffffffffffffff81118282101715610ca157610ca1610c68565b604051601f8201601f1916810167ffffffffffffffff81118282101715610d1657610d16610c68565b604052919050565b600067ffffffffffffffff821115610d3857610d38610c68565b50601f01601f191660200190565b600060208284031215610d5857600080fd5b815167ffffffffffffffff811115610d6f57600080fd5b8201601f81018413610d8057600080fd5b8051610d93610d8e82610d1e565b610ced565b818152856020838501011115610da857600080fd5b6102c4826020830160208601610a45565b606081016109d78284805160020b8252602081015160020b6020830152604081015160408301525050565b803560028110610df357600080fd5b919050565b600082601f830112610e0957600080fd5b8135610e17610d8e82610d1e565b818152846020838601011115610e2c57600080fd5b816020850160208301376000918101602001919091529392505050565b600060208284031215610e5b57600080fd5b813567ffffffffffffffff80821115610e7357600080fd5b90830190818503610100811215610e8957600080fd5b610e91610c7e565b8335610e9c816109ee565b815260a0601f1983011215610eb057600080fd5b610eb8610ca7565b91506020840135610ec8816109ee565b82526040840135610ed8816109ee565b6020830152606084013562ffffff81168114610ef357600080fd5b60408301526080840135610f0681610aaf565b606083015260a0840135610f19816109ee565b608083015260208101829052610f3160c08501610de4565b604082015260e0840135915082821115610f4a57600080fd5b610f5687838601610df8565b60608201529695505050505050565b600060608284031215610f7757600080fd5b610f7f610cca565b8251610f8a81610aaf565b81526020830151610f9a81610aaf565b60208201526040928301519281019290925250919050565b6000610120610fc18387610bb3565b8451600290810b60a08501526020860151900b60c0840152604085015160e08401525b80610100840152610ff781840185610a69565b9695505050505050565b60006020828403121561101357600080fd5b5051919050565b60006060828403121561102c57600080fd5b611034610cca565b825161103f816109dd565b8152602083810151908201526040830151611059816109ee565b60408201529392505050565b60006101206110748387610bb3565b8451151560a0840152602085015160c084015260408501516001600160a01b031660e0840152610fe4565b6001600160a01b0393841681529190921660208201526001600160801b03909116604082015260600190565b6000602082840312156110dd57600080fd5b8151610aa8816109dd565b600081600f0b6f7fffffffffffffffffffffffffffffff19810361111c57634e487b7160e01b600052601160045260246000fd5b6000039291505056fea26469706673582212202ab213ca57a1215ffef8fe0b2abb94bf7a36eec0a06072562115450d0eb253d864736f6c63430008140033",
    "linkReferences": {}
  },
  "methodIdentifiers": {
    "SQRT_RATIO_1_1()": "77267b1e",
    "ZERO_BYTES()": "c11808d9",
    "lockAcquired(bytes)": "ab6291fe",
    "poolKey()": "182148ef",
    "poolManager()": "dc4c90d3",
    "runMP(int24,int24,int256)": "4d3a02ab",
    "runSwap(bool,int256,uint160)": "1ff8331c"
  },
  "id": 62
}